{
  "_format": "hh-sol-artifact-1",
  "contractName": "PanopticFactory",
  "sourceName": "contracts/PanopticFactory.sol",
  "abi": [
    {
      "inputs": [
        {
          "internalType": "address",
          "name": "_SFPM",
          "type": "address"
        }
      ],
      "stateMutability": "nonpayable",
      "type": "constructor"
    },
    {
      "anonymous": false,
      "inputs": [
        {
          "indexed": true,
          "internalType": "address",
          "name": "previousOwner",
          "type": "address"
        },
        {
          "indexed": true,
          "internalType": "address",
          "name": "newOwner",
          "type": "address"
        }
      ],
      "name": "OwnershipTransferred",
      "type": "event"
    },
    {
      "anonymous": false,
      "inputs": [
        {
          "indexed": false,
          "internalType": "address",
          "name": "poolAddress",
          "type": "address"
        },
        {
          "indexed": false,
          "internalType": "address",
          "name": "uniSwapPool",
          "type": "address"
        }
      ],
      "name": "PoolDeployed",
      "type": "event"
    },
    {
      "inputs": [
        {
          "internalType": "address",
          "name": "_poolAddress",
          "type": "address"
        }
      ],
      "name": "deployToNewPool",
      "outputs": [
        {
          "internalType": "address",
          "name": "newPoolAddress",
          "type": "address"
        }
      ],
      "stateMutability": "nonpayable",
      "type": "function"
    },
    {
      "inputs": [],
      "name": "owner",
      "outputs": [
        {
          "internalType": "address",
          "name": "",
          "type": "address"
        }
      ],
      "stateMutability": "view",
      "type": "function"
    },
    {
      "inputs": [
        {
          "internalType": "address",
          "name": "",
          "type": "address"
        }
      ],
      "name": "panopticPools",
      "outputs": [
        {
          "internalType": "address",
          "name": "",
          "type": "address"
        }
      ],
      "stateMutability": "view",
      "type": "function"
    },
    {
      "inputs": [],
      "name": "renounceOwnership",
      "outputs": [],
      "stateMutability": "nonpayable",
      "type": "function"
    },
    {
      "inputs": [
        {
          "internalType": "address",
          "name": "newOwner",
          "type": "address"
        }
      ],
      "name": "transferOwnership",
      "outputs": [],
      "stateMutability": "nonpayable",
      "type": "function"
    }
  ],
  "bytecode": "0x60806040526001600760006101000a81548169ffffffffffffffffffff021916908369ffffffffffffffffffff1602179055503480156200003f57600080fd5b5060405162009a1c38038062009a1c833981810160405281019062000065919062000243565b6000620000776200020860201b60201c565b9050806000806101000a81548173ffffffffffffffffffffffffffffffffffffffff021916908373ffffffffffffffffffffffffffffffffffffffff1602179055508073ffffffffffffffffffffffffffffffffffffffff16600073ffffffffffffffffffffffffffffffffffffffff167f8be0079c531659141344cd1fd0a4f28419497f9722a3daafe3b4186f6b6457e060405160405180910390a35060018081905550806040516200012b9062000210565b62000137919062000280565b604051809103906000f08015801562000154573d6000803e3d6000fd5b50600260006101000a81548173ffffffffffffffffffffffffffffffffffffffff021916908373ffffffffffffffffffffffffffffffffffffffff160217905550604051620001a3906200021e565b604051809103906000f080158015620001c0573d6000803e3d6000fd5b50600360006101000a81548173ffffffffffffffffffffffffffffffffffffffff021916908373ffffffffffffffffffffffffffffffffffffffff16021790555050620002eb565b600033905090565b6161158062000bad83390190565b612d5a8062006cc283390190565b6000815190506200023d81620002d1565b92915050565b6000602082840312156200025657600080fd5b600062000266848285016200022c565b91505092915050565b6200027a816200029d565b82525050565b60006020820190506200029760008301846200026f565b92915050565b6000620002aa82620002b1565b9050919050565b600073ffffffffffffffffffffffffffffffffffffffff82169050919050565b620002dc816200029d565b8114620002e857600080fd5b50565b6108b280620002fb6000396000f3fe608060405234801561001057600080fd5b50600436106100575760003560e01c8063448bb2511461005c57806360a001861461008c578063715018a6146100bc5780638da5cb5b146100c6578063f2fde38b146100e4575b600080fd5b61007660048036038101906100719190610791565b610100565b60405161008391906107c9565b60405180910390f35b6100a660048036038101906100a19190610791565b610133565b6040516100b391906107c9565b60405180910390f35b6100c46102e4565b005b6100ce610451565b6040516100db91906107c9565b60405180910390f35b6100fe60048036038101906100f99190610791565b61047a565b005b60046020528060005260406000206000915054906101000a900473ffffffffffffffffffffffffffffffffffffffff1681565b600061013d61066c565b73ffffffffffffffffffffffffffffffffffffffff1661015b610451565b73ffffffffffffffffffffffffffffffffffffffff16146101e4576040517f08c379a00000000000000000000000000000000000000000000000000000000081526004018080602001828103825260208152602001807f4f776e61626c653a2063616c6c6572206973206e6f7420746865206f776e657281525060200191505060405180910390fd5b61020f600260009054906101000a900473ffffffffffffffffffffffffffffffffffffffff16610674565b905060008190508073ffffffffffffffffffffffffffffffffffffffff16634216fb3e84600360009054906101000a900473ffffffffffffffffffffffffffffffffffffffff166040518363ffffffff1660e01b81526004016102739291906107e4565b600060405180830381600087803b15801561028d57600080fd5b505af11580156102a1573d6000803e3d6000fd5b505050507f8dc1358b8a9cf262058f5f7944b19b8d0884556e191652c63859d2bd85724f3381846040516102d69291906107e4565b60405180910390a150919050565b6102ec61066c565b73ffffffffffffffffffffffffffffffffffffffff1661030a610451565b73ffffffffffffffffffffffffffffffffffffffff1614610393576040517f08c379a00000000000000000000000000000000000000000000000000000000081526004018080602001828103825260208152602001807f4f776e61626c653a2063616c6c6572206973206e6f7420746865206f776e657281525060200191505060405180910390fd5b600073ffffffffffffffffffffffffffffffffffffffff1660008054906101000a900473ffffffffffffffffffffffffffffffffffffffff1673ffffffffffffffffffffffffffffffffffffffff167f8be0079c531659141344cd1fd0a4f28419497f9722a3daafe3b4186f6b6457e060405160405180910390a360008060006101000a81548173ffffffffffffffffffffffffffffffffffffffff021916908373ffffffffffffffffffffffffffffffffffffffff160217905550565b60008060009054906101000a900473ffffffffffffffffffffffffffffffffffffffff16905090565b61048261066c565b73ffffffffffffffffffffffffffffffffffffffff166104a0610451565b73ffffffffffffffffffffffffffffffffffffffff1614610529576040517f08c379a00000000000000000000000000000000000000000000000000000000081526004018080602001828103825260208152602001807f4f776e61626c653a2063616c6c6572206973206e6f7420746865206f776e657281525060200191505060405180910390fd5b600073ffffffffffffffffffffffffffffffffffffffff168173ffffffffffffffffffffffffffffffffffffffff1614156105af576040517f08c379a00000000000000000000000000000000000000000000000000000000081526004018080602001828103825260268152602001806108576026913960400191505060405180910390fd5b8073ffffffffffffffffffffffffffffffffffffffff1660008054906101000a900473ffffffffffffffffffffffffffffffffffffffff1673ffffffffffffffffffffffffffffffffffffffff167f8be0079c531659141344cd1fd0a4f28419497f9722a3daafe3b4186f6b6457e060405160405180910390a3806000806101000a81548173ffffffffffffffffffffffffffffffffffffffff021916908373ffffffffffffffffffffffffffffffffffffffff16021790555050565b600033905090565b60006040517f3d602d80600a3d3981f3363d3d373d3d3d363d7300000000000000000000000081528260601b60148201527f5af43d82803e903d91602b57fd5bf3000000000000000000000000000000000060288201526037816000f0915050600073ffffffffffffffffffffffffffffffffffffffff168173ffffffffffffffffffffffffffffffffffffffff161415610777576040517f08c379a00000000000000000000000000000000000000000000000000000000081526004018080602001828103825260168152602001807f455243313136373a20637265617465206661696c65640000000000000000000081525060200191505060405180910390fd5b919050565b60008135905061078b8161083f565b92915050565b6000602082840312156107a357600080fd5b60006107b18482850161077c565b91505092915050565b6107c38161080d565b82525050565b60006020820190506107de60008301846107ba565b92915050565b60006040820190506107f960008301856107ba565b61080660208301846107ba565b9392505050565b60006108188261081f565b9050919050565b600073ffffffffffffffffffffffffffffffffffffffff82169050919050565b6108488161080d565b811461085357600080fd5b5056fe4f776e61626c653a206e6577206f776e657220697320746865207a65726f2061646472657373a264697066735822122097c2152c95331f36f5741aa723d23af14d0f65951a109e6898ad5de9adddec2664736f6c6343000706003360a06040523480156200001157600080fd5b50604051620061153803806200611583398181016040528101906200003791906200028e565b6000620000496200016560201b60201c565b9050806000806101000a81548173ffffffffffffffffffffffffffffffffffffffff021916908373ffffffffffffffffffffffffffffffffffffffff1602179055508073ffffffffffffffffffffffffffffffffffffffff16600073ffffffffffffffffffffffffffffffffffffffff167f8be0079c531659141344cd1fd0a4f28419497f9722a3daafe3b4186f6b6457e060405160405180910390a35060018081905550620001066301ffc9a760e01b6200016d60201b60201c565b6200012763bc197c8160e01b63f23a6e6160e01b186200016d60201b60201c565b8073ffffffffffffffffffffffffffffffffffffffff1660808173ffffffffffffffffffffffffffffffffffffffff1660601b815250505062000308565b600033905090565b63ffffffff60e01b817bffffffffffffffffffffffffffffffffffffffffffffffffffffffff191614156200020a576040517f08c379a000000000000000000000000000000000000000000000000000000000815260040180806020018281038252601c8152602001807f4552433136353a20696e76616c696420696e746572666163652069640000000081525060200191505060405180910390fd5b600160026000837bffffffffffffffffffffffffffffffffffffffffffffffffffffffff19167bffffffffffffffffffffffffffffffffffffffffffffffffffffffff1916815260200190815260200160002060006101000a81548160ff02191690831515021790555050565b6000815190506200028881620002ee565b92915050565b600060208284031215620002a157600080fd5b6000620002b18482850162000277565b91505092915050565b6000620002c782620002ce565b9050919050565b600073ffffffffffffffffffffffffffffffffffffffff82169050919050565b620002f981620002ba565b81146200030557600080fd5b50565b60805160601c615ddb6200033a60003980610f14528061100452806113f652806119c752806122995250615ddb6000f3fe608060405234801561001057600080fd5b506004361061018e5760003560e01c8063715018a6116100de578063c04eb67511610097578063d1c6e1e111610071578063d1c6e1e114610466578063d21220a714610496578063f23a6e61146104b4578063f2fde38b146104e45761018e565b8063c04eb675146103fc578063ca7e3c081461042c578063d0c93a7c146104485761018e565b8063715018a61461034e5780638da5cb5b146103585780639f65dde514610376578063b06c207514610392578063b8e61311146103ae578063bc197c81146103cc5761018e565b806338ee6f001161014b578063506336ca11610125578063506336ca146102c657806358282d0e146102f65780636e553f65146103145780636ef547f8146103305761018e565b806338ee6f0014610257578063412330bc146102895780634216fb3e146102aa5761018e565b806301ffc9a7146101935780630dfe1681146101c357806316f0115b146101e15780631807f18f146101ff57806324bf24931461021b5780632e0f262514610239575b600080fd5b6101ad60048036038101906101a89190614cde565b610500565b6040516101ba91906155ad565b60405180910390f35b6101cb610568565b6040516101d8919061549f565b60405180910390f35b6101e961058e565b6040516101f69190615619565b60405180910390f35b61021960048036038101906102149190614b2a565b6105b4565b005b6102236107bf565b60405161023091906156c5565b60405180910390f35b6102416107e5565b60405161024e91906158d2565b60405180910390f35b610271600480360381019061026c9190614bd2565b6107eb565b60405161028093929190615856565b60405180910390f35b610291610893565b6040516102a1949392919061588d565b60405180910390f35b6102c460048036038101906102bf91906149a0565b610921565b005b6102e060048036038101906102db9190614b96565b611226565b6040516102ed919061583b565b60405180910390f35b6102fe611264565b60405161030b91906158d2565b60405180910390f35b61032e60048036038101906103299190614eea565b611269565b005b6103386113f4565b60405161034591906155fe565b60405180910390f35b610356611418565b005b610360611585565b60405161036d919061549f565b60405180910390f35b610390600480360381019061038b9190614c21565b6115ae565b005b6103ac60048036038101906103a79190614f26565b611c2c565b005b6103b6611f2f565b6040516103c391906156c5565b60405180910390f35b6103e660048036038101906103e191906149dc565b611f55565b6040516103f391906155e3565b60405180910390f35b6104166004803603810190610411919061494e565b611f6a565b60405161042391906158ed565b60405180910390f35b61044660048036038101906104419190614e98565b611f82565b005b6104506125de565b60405161045d91906156e0565b60405180910390f35b610480600480360381019061047b9190614ca2565b6125f1565b60405161048d91906158ed565b60405180910390f35b61049e612700565b6040516104ab919061549f565b60405180910390f35b6104ce60048036038101906104c99190614a9b565b612726565b6040516104db91906155e3565b60405180910390f35b6104fe60048036038101906104f9919061494e565b61273b565b005b600060026000837bffffffffffffffffffffffffffffffffffffffffffffffffffffffff19167bffffffffffffffffffffffffffffffffffffffffffffffffffffffff1916815260200190815260200160002060009054906101000a900460ff169050919050565b600460009054906101000a900473ffffffffffffffffffffffffffffffffffffffff1681565b600360009054906101000a900473ffffffffffffffffffffffffffffffffffffffff1681565b73__$5e4b75047fcf4cf95f88a7d3ca82afce95$__63e513756130600860008873ffffffffffffffffffffffffffffffffffffffff1673ffffffffffffffffffffffffffffffffffffffff168152602001908152602001600020868686600660009054906101000a900473ffffffffffffffffffffffffffffffffffffffff1673ffffffffffffffffffffffffffffffffffffffff166370a082318c6040518263ffffffff1660e01b815260040161066c919061549f565b60206040518083038186803b15801561068457600080fd5b505afa158015610698573d6000803e3d6000fd5b505050506040513d601f19601f820116820180604052508101906106bc9190614ec1565b600760009054906101000a900473ffffffffffffffffffffffffffffffffffffffff1673ffffffffffffffffffffffffffffffffffffffff166370a082318d6040518263ffffffff1660e01b8152600401610717919061549f565b60206040518083038186803b15801561072f57600080fd5b505afa158015610743573d6000803e3d6000fd5b505050506040513d601f19601f820116820180604052508101906107679190614ec1565b6040518863ffffffff1660e01b8152600401610789979695949392919061551a565b60006040518083038186803b1580156107a157600080fd5b505af41580156107b5573d6000803e3d6000fd5b5050505050505050565b600660009054906101000a900473ffffffffffffffffffffffffffffffffffffffff1681565b61271081565b600a602052826000526040600020602052816000526040600020818154811061081357600080fd5b906000526020600020906002020160009250925050508060000160009054906101000a90046fffffffffffffffffffffffffffffffff16908060000160109054906101000a90046fffffffffffffffffffffffffffffffff16908060010160009054906101000a90046fffffffffffffffffffffffffffffffff16905083565b600b8060000160009054906101000a90046fffffffffffffffffffffffffffffffff16908060000160109054906101000a90046fffffffffffffffffffffffffffffffff16908060010160009054906101000a90046fffffffffffffffffffffffffffffffff16908060010160109054906101000a90046fffffffffffffffffffffffffffffffff16905084565b600073ffffffffffffffffffffffffffffffffffffffff16600360009054906101000a900473ffffffffffffffffffffffffffffffffffffffff1673ffffffffffffffffffffffffffffffffffffffff16146109b2576040517f08c379a00000000000000000000000000000000000000000000000000000000081526004016109a99061571b565b60405180910390fd5b600073ffffffffffffffffffffffffffffffffffffffff168273ffffffffffffffffffffffffffffffffffffffff161415610a22576040517f08c379a0000000000000000000000000000000000000000000000000000000008152600401610a199061577b565b60405180910390fd5b81600360006101000a81548173ffffffffffffffffffffffffffffffffffffffff021916908373ffffffffffffffffffffffffffffffffffffffff160217905550600360009054906101000a900473ffffffffffffffffffffffffffffffffffffffff1673ffffffffffffffffffffffffffffffffffffffff1663d0c93a7c6040518163ffffffff1660e01b815260040160206040518083038186803b158015610acb57600080fd5b505afa158015610adf573d6000803e3d6000fd5b505050506040513d601f19601f82011682018060405250810190610b039190614d6a565b600760146101000a81548162ffffff021916908360020b62ffffff160217905550600360009054906101000a900473ffffffffffffffffffffffffffffffffffffffff1673ffffffffffffffffffffffffffffffffffffffff16630dfe16816040518163ffffffff1660e01b815260040160206040518083038186803b158015610b8c57600080fd5b505afa158015610ba0573d6000803e3d6000fd5b505050506040513d601f19601f82011682018060405250810190610bc49190614977565b600460006101000a81548173ffffffffffffffffffffffffffffffffffffffff021916908373ffffffffffffffffffffffffffffffffffffffff160217905550600360009054906101000a900473ffffffffffffffffffffffffffffffffffffffff1673ffffffffffffffffffffffffffffffffffffffff1663d21220a76040518163ffffffff1660e01b815260040160206040518083038186803b158015610c6c57600080fd5b505afa158015610c80573d6000803e3d6000fd5b505050506040513d601f19601f82011682018060405250810190610ca49190614977565b600560006101000a81548173ffffffffffffffffffffffffffffffffffffffff021916908373ffffffffffffffffffffffffffffffffffffffff160217905550610ced8161292d565b600660006101000a81548173ffffffffffffffffffffffffffffffffffffffff021916908373ffffffffffffffffffffffffffffffffffffffff160217905550600660009054906101000a900473ffffffffffffffffffffffffffffffffffffffff1673ffffffffffffffffffffffffffffffffffffffff1663183744fb600460009054906101000a900473ffffffffffffffffffffffffffffffffffffffff166040518263ffffffff1660e01b8152600401610daa919061549f565b600060405180830381600087803b158015610dc457600080fd5b505af1158015610dd8573d6000803e3d6000fd5b50505050610de58161292d565b600760006101000a81548173ffffffffffffffffffffffffffffffffffffffff021916908373ffffffffffffffffffffffffffffffffffffffff160217905550600760009054906101000a900473ffffffffffffffffffffffffffffffffffffffff1673ffffffffffffffffffffffffffffffffffffffff1663183744fb600560009054906101000a900473ffffffffffffffffffffffffffffffffffffffff166040518263ffffffff1660e01b8152600401610ea2919061549f565b600060405180830381600087803b158015610ebc57600080fd5b505af1158015610ed0573d6000803e3d6000fd5b50505050600460009054906101000a900473ffffffffffffffffffffffffffffffffffffffff1673ffffffffffffffffffffffffffffffffffffffff1663095ea7b37f00000000000000000000000000000000000000000000000000000000000000007fffffffffffffffffffffffffffffffffffffffffffffffffffffffffffffffff6040518363ffffffff1660e01b8152600401610f71929190615584565b602060405180830381600087803b158015610f8b57600080fd5b505af1158015610f9f573d6000803e3d6000fd5b505050506040513d601f19601f82011682018060405250810190610fc39190614c79565b50600560009054906101000a900473ffffffffffffffffffffffffffffffffffffffff1673ffffffffffffffffffffffffffffffffffffffff1663095ea7b37f00000000000000000000000000000000000000000000000000000000000000007fffffffffffffffffffffffffffffffffffffffffffffffffffffffffffffffff6040518363ffffffff1660e01b8152600401611061929190615584565b602060405180830381600087803b15801561107b57600080fd5b505af115801561108f573d6000803e3d6000fd5b505050506040513d601f19601f820116820180604052508101906110b39190614c79565b50604051806080016040528060006fffffffffffffffffffffffffffffffff16815260200160006fffffffffffffffffffffffffffffffff16815260200160006fffffffffffffffffffffffffffffffff16815260200160006fffffffffffffffffffffffffffffffff16815250600b60008201518160000160006101000a8154816fffffffffffffffffffffffffffffffff02191690836fffffffffffffffffffffffffffffffff16021790555060208201518160000160106101000a8154816fffffffffffffffffffffffffffffffff02191690836fffffffffffffffffffffffffffffffff16021790555060408201518160010160006101000a8154816fffffffffffffffffffffffffffffffff02191690836fffffffffffffffffffffffffffffffff16021790555060608201518160010160106101000a8154816fffffffffffffffffffffffffffffffff02191690836fffffffffffffffffffffffffffffffff1602179055509050505050565b60086020528160005260406000206020528060005260406000206000915091509054906101000a90046fffffffffffffffffffffffffffffffff1681565b600a81565b600460009054906101000a900473ffffffffffffffffffffffffffffffffffffffff1673ffffffffffffffffffffffffffffffffffffffff168173ffffffffffffffffffffffffffffffffffffffff1614806113125750600560009054906101000a900473ffffffffffffffffffffffffffffffffffffffff1673ffffffffffffffffffffffffffffffffffffffff168173ffffffffffffffffffffffffffffffffffffffff16145b611351576040517f08c379a00000000000000000000000000000000000000000000000000000000081526004016113489061575b565b60405180910390fd5b60008211611394576040517f08c379a000000000000000000000000000000000000000000000000000000000815260040161138b906157db565b60405180910390fd5b6113f08133600460009054906101000a900473ffffffffffffffffffffffffffffffffffffffff1673ffffffffffffffffffffffffffffffffffffffff168473ffffffffffffffffffffffffffffffffffffffff161485612a35565b5050565b7f000000000000000000000000000000000000000000000000000000000000000081565b611420612bbb565b73ffffffffffffffffffffffffffffffffffffffff1661143e611585565b73ffffffffffffffffffffffffffffffffffffffff16146114c7576040517f08c379a00000000000000000000000000000000000000000000000000000000081526004018080602001828103825260208152602001807f4f776e61626c653a2063616c6c6572206973206e6f7420746865206f776e657281525060200191505060405180910390fd5b600073ffffffffffffffffffffffffffffffffffffffff1660008054906101000a900473ffffffffffffffffffffffffffffffffffffffff1673ffffffffffffffffffffffffffffffffffffffff167f8be0079c531659141344cd1fd0a4f28419497f9722a3daafe3b4186f6b6457e060405160405180910390a360008060006101000a81548173ffffffffffffffffffffffffffffffffffffffff021916908373ffffffffffffffffffffffffffffffffffffffff160217905550565b60008060009054906101000a900473ffffffffffffffffffffffffffffffffffffffff16905090565b60008383600186869050038181106115c257fe5b9050602002013590506000600860003373ffffffffffffffffffffffffffffffffffffffff1673ffffffffffffffffffffffffffffffffffffffff1681526020019081526020016000209050600081600084815260200190815260200160002060009054906101000a90046fffffffffffffffffffffffffffffffff166fffffffffffffffffffffffffffffffff1614611691576040517f08c379a0000000000000000000000000000000000000000000000000000000008152600401611688906156fb565b60405180910390fd5b6001600960003373ffffffffffffffffffffffffffffffffffffffff1673ffffffffffffffffffffffffffffffffffffffff16815260200190815260200160002054018585905014611718576040517f08c379a000000000000000000000000000000000000000000000000000000000815260040161170f906157fb565b60405180910390fd5b6000806117258486612bc3565b9150915084600860003373ffffffffffffffffffffffffffffffffffffffff1673ffffffffffffffffffffffffffffffffffffffff168152602001908152602001600020600086815260200190815260200160002060006101000a8154816fffffffffffffffffffffffffffffffff02191690836fffffffffffffffffffffffffffffffff1602179055506001600960003373ffffffffffffffffffffffffffffffffffffffff1673ffffffffffffffffffffffffffffffffffffffff1681526020019081526020016000206000828254019250508190555061182033604051806040016040528060008152602001600081525089896105b4565b81600460009054906101000a900473ffffffffffffffffffffffffffffffffffffffff1673ffffffffffffffffffffffffffffffffffffffff166370a08231306040518263ffffffff1660e01b815260040161187c919061549f565b60206040518083038186803b15801561189457600080fd5b505afa1580156118a8573d6000803e3d6000fd5b505050506040513d601f19601f820116820180604052508101906118cc9190614ec1565b10158015611984575080600560009054906101000a900473ffffffffffffffffffffffffffffffffffffffff1673ffffffffffffffffffffffffffffffffffffffff166370a08231306040518263ffffffff1660e01b8152600401611931919061549f565b60206040518083038186803b15801561194957600080fd5b505afa15801561195d573d6000803e3d6000fd5b505050506040513d601f19601f820116820180604052508101906119819190614ec1565b10155b6119c3576040517f08c379a00000000000000000000000000000000000000000000000000000000081526004016119ba9061573b565b60405180910390fd5b60007f000000000000000000000000000000000000000000000000000000000000000073ffffffffffffffffffffffffffffffffffffffff1663db395b9b8688306040518463ffffffff1660e01b8152600401611a2293929190615931565b608060405180830381600087803b158015611a3c57600080fd5b505af1158015611a50573d6000803e3d6000fd5b505050506040513d601f19601f82011682018060405250810190611a749190614d93565b90508060000151600b60010160009054906101000a90046fffffffffffffffffffffffffffffffff166fffffffffffffffffffffffffffffffff1601600b60010160006101000a8154816fffffffffffffffffffffffffffffffff02191690836fffffffffffffffffffffffffffffffff1602179055508060200151600b60010160109054906101000a90046fffffffffffffffffffffffffffffffff166fffffffffffffffffffffffffffffffff1601600b60010160106101000a8154816fffffffffffffffffffffffffffffffff02191690836fffffffffffffffffffffffffffffffff1602179055508060400151600b60000160008282829054906101000a90046fffffffffffffffffffffffffffffffff160192506101000a8154816fffffffffffffffffffffffffffffffff02191690836fffffffffffffffffffffffffffffffff1602179055508060600151600b60000160108282829054906101000a90046fffffffffffffffffffffffffffffffff160192506101000a8154816fffffffffffffffffffffffffffffffff02191690836fffffffffffffffffffffffffffffffff1602179055505050505050505050565b600460009054906101000a900473ffffffffffffffffffffffffffffffffffffffff1673ffffffffffffffffffffffffffffffffffffffff168373ffffffffffffffffffffffffffffffffffffffff161480611cd55750600560009054906101000a900473ffffffffffffffffffffffffffffffffffffffff1673ffffffffffffffffffffffffffffffffffffffff168373ffffffffffffffffffffffffffffffffffffffff16145b611d14576040517f08c379a0000000000000000000000000000000000000000000000000000000008152600401611d0b9061575b565b60405180910390fd5b60008411611d57576040517f08c379a0000000000000000000000000000000000000000000000000000000008152600401611d4e9061581b565b60405180910390fd5b600960003373ffffffffffffffffffffffffffffffffffffffff1673ffffffffffffffffffffffffffffffffffffffff168152602001908152602001600020548282905014611ddb576040517f08c379a0000000000000000000000000000000000000000000000000000000008152600401611dd2906157fb565b60405180910390fd5b600460009054906101000a900473ffffffffffffffffffffffffffffffffffffffff1673ffffffffffffffffffffffffffffffffffffffff168373ffffffffffffffffffffffffffffffffffffffff161415611e8257611e52336040518060400160405280878152602001600081525084846105b4565b611e81600460009054906101000a900473ffffffffffffffffffffffffffffffffffffffff1633600187612c62565b5b600560009054906101000a900473ffffffffffffffffffffffffffffffffffffffff1673ffffffffffffffffffffffffffffffffffffffff168373ffffffffffffffffffffffffffffffffffffffff161415611f2957611ef9336040518060400160405280600081526020018781525084846105b4565b611f28600560009054906101000a900473ffffffffffffffffffffffffffffffffffffffff1633600087612c62565b5b50505050565b600760009054906101000a900473ffffffffffffffffffffffffffffffffffffffff1681565b600063bc197c8160e01b905095945050505050565b60096020528060005260406000206000915090505481565b6000600860003373ffffffffffffffffffffffffffffffffffffffff1673ffffffffffffffffffffffffffffffffffffffff168152602001908152602001600020600083815260200190815260200160002060009054906101000a90046fffffffffffffffffffffffffffffffff1690506000816fffffffffffffffffffffffffffffffff1611612048576040517f08c379a000000000000000000000000000000000000000000000000000000000815260040161203f906157bb565b60405180910390fd5b6000600a60003373ffffffffffffffffffffffffffffffffffffffff1673ffffffffffffffffffffffffffffffffffffffff1681526020019081526020016000206000848152602001908152602001600020905060008060008073__$c3f55a3e7e4b410bf199cd5e3e47df218f$__63cd19ecc3600360009054906101000a900473ffffffffffffffffffffffffffffffffffffffff16878a8a6040518563ffffffff1660e01b81526004016121019493929190615634565b60806040518083038186803b15801561211957600080fd5b505af415801561212d573d6000803e3d6000fd5b505050506040513d601f19601f820116820180604052508101906121519190614d07565b935093509350935060008073__$c3f55a3e7e4b410bf199cd5e3e47df218f$__636be15a1f8a8a600360009054906101000a900473ffffffffffffffffffffffffffffffffffffffff1673ffffffffffffffffffffffffffffffffffffffff1663d0c93a7c6040518163ffffffff1660e01b815260040160206040518083038186803b1580156121e057600080fd5b505afa1580156121f4573d6000803e3d6000fd5b505050506040513d601f19601f820116820180604052508101906122189190614d6a565b6040518463ffffffff1660e01b815260040161223693929190615968565b604080518083038186803b15801561224d57600080fd5b505af4158015612261573d6000803e3d6000fd5b505050506040513d601f19601f820116820180604052508101906122859190614de5565b9150915061229582828888612e33565b60007f000000000000000000000000000000000000000000000000000000000000000073ffffffffffffffffffffffffffffffffffffffff1663dd8c1bc88b306040518363ffffffff1660e01b81526004016122f2929190615908565b608060405180830381600087803b15801561230c57600080fd5b505af1158015612320573d6000803e3d6000fd5b505050506040513d601f19601f820116820180604052508101906123449190614d93565b90508060000151600b60010160008282829054906101000a90046fffffffffffffffffffffffffffffffff160192506101000a8154816fffffffffffffffffffffffffffffffff02191690836fffffffffffffffffffffffffffffffff1602179055508060200151600b60010160108282829054906101000a90046fffffffffffffffffffffffffffffffff160192506101000a8154816fffffffffffffffffffffffffffffffff02191690836fffffffffffffffffffffffffffffffff16021790555084600f0b8160400151600b60000160009054906101000a90046fffffffffffffffffffffffffffffffff166fffffffffffffffffffffffffffffffff160103600b60000160006101000a8154816fffffffffffffffffffffffffffffffff02191690836fffffffffffffffffffffffffffffffff16021790555083600f0b8160600151600b60000160109054906101000a90046fffffffffffffffffffffffffffffffff166fffffffffffffffffffffffffffffffff160103600b60000160106101000a8154816fffffffffffffffffffffffffffffffff02191690836fffffffffffffffffffffffffffffffff1602179055506000600860003373ffffffffffffffffffffffffffffffffffffffff1673ffffffffffffffffffffffffffffffffffffffff16815260200190815260200160002060008c815260200190815260200160002060006101000a8154816fffffffffffffffffffffffffffffffff02191690836fffffffffffffffffffffffffffffffff1602179055506001600960003373ffffffffffffffffffffffffffffffffffffffff1673ffffffffffffffffffffffffffffffffffffffff1681526020019081526020016000206000828254039250508190555050505050505050505050565b600760149054906101000a900460020b81565b6000808361262157600760009054906101000a900473ffffffffffffffffffffffffffffffffffffffff16612645565b600660009054906101000a900473ffffffffffffffffffffffffffffffffffffffff165b905060008173ffffffffffffffffffffffffffffffffffffffff166318160ddd6040518163ffffffff1660e01b815260040160206040518083038186803b15801561268f57600080fd5b505afa1580156126a3573d6000803e3d6000fd5b505050506040513d601f19601f820116820180604052508101906126c79190614ec1565b9050600081146126f45760006126dc86613133565b905081818602816126e957fe5b0493505050506126fa565b83925050505b92915050565b600560009054906101000a900473ffffffffffffffffffffffffffffffffffffffff1681565b600063f23a6e6160e01b905095945050505050565b612743612bbb565b73ffffffffffffffffffffffffffffffffffffffff16612761611585565b73ffffffffffffffffffffffffffffffffffffffff16146127ea576040517f08c379a00000000000000000000000000000000000000000000000000000000081526004018080602001828103825260208152602001807f4f776e61626c653a2063616c6c6572206973206e6f7420746865206f776e657281525060200191505060405180910390fd5b600073ffffffffffffffffffffffffffffffffffffffff168173ffffffffffffffffffffffffffffffffffffffff161415612870576040517f08c379a0000000000000000000000000000000000000000000000000000000008152600401808060200182810382526026815260200180615d806026913960400191505060405180910390fd5b8073ffffffffffffffffffffffffffffffffffffffff1660008054906101000a900473ffffffffffffffffffffffffffffffffffffffff1673ffffffffffffffffffffffffffffffffffffffff167f8be0079c531659141344cd1fd0a4f28419497f9722a3daafe3b4186f6b6457e060405160405180910390a3806000806101000a81548173ffffffffffffffffffffffffffffffffffffffff021916908373ffffffffffffffffffffffffffffffffffffffff16021790555050565b60006040517f3d602d80600a3d3981f3363d3d373d3d3d363d7300000000000000000000000081528260601b60148201527f5af43d82803e903d91602b57fd5bf3000000000000000000000000000000000060288201526037816000f0915050600073ffffffffffffffffffffffffffffffffffffffff168173ffffffffffffffffffffffffffffffffffffffff161415612a30576040517f08c379a00000000000000000000000000000000000000000000000000000000081526004018080602001828103825260168152602001807f455243313136373a20637265617465206661696c65640000000000000000000081525060200191505060405180910390fd5b919050565b6000612a418383613374565b90508215612add57600660009054906101000a900473ffffffffffffffffffffffffffffffffffffffff1673ffffffffffffffffffffffffffffffffffffffff166340c10f1985836040518363ffffffff1660e01b8152600401612aa6929190615584565b600060405180830381600087803b158015612ac057600080fd5b505af1158015612ad4573d6000803e3d6000fd5b50505050612b6d565b600760009054906101000a900473ffffffffffffffffffffffffffffffffffffffff1673ffffffffffffffffffffffffffffffffffffffff166340c10f1985836040518363ffffffff1660e01b8152600401612b3a929190615584565b600060405180830381600087803b158015612b5457600080fd5b505af1158015612b68573d6000803e3d6000fd5b505050505b612b7985853085613485565b7f8752a472e571a816aea92eec8dae9baf628e840f4929fbcc2d155e6233ff68a7848684604051612bac939291906154e3565b60405180910390a15050505050565b600033905090565b600080600080600090505b60048160ff161015612c59576000612be8876001846136a5565b1415612bf357612c59565b612bfe8686836137e2565b91506000612c0e876003846136a5565b1415612c33576000612c22876002846136a5565b1415612c2e5781840193505b612c4e565b6000612c41876002846136a5565b1415612c4d5781830192505b5b806001019050612bce565b50509250929050565b6000612c6e8383613374565b9050612c7a8484613bbf565b821115612cbc576040517f08c379a0000000000000000000000000000000000000000000000000000000008152600401612cb39061579b565b60405180910390fd5b8215612d5657600660009054906101000a900473ffffffffffffffffffffffffffffffffffffffff1673ffffffffffffffffffffffffffffffffffffffff16639dc29fac85836040518363ffffffff1660e01b8152600401612d1f929190615584565b600060405180830381600087803b158015612d3957600080fd5b505af1158015612d4d573d6000803e3d6000fd5b50505050612de6565b600760009054906101000a900473ffffffffffffffffffffffffffffffffffffffff1673ffffffffffffffffffffffffffffffffffffffff16639dc29fac85836040518363ffffffff1660e01b8152600401612db3929190615584565b600060405180830381600087803b158015612dcd57600080fd5b505af1158015612de1573d6000803e3d6000fd5b505050505b612df1858584613cb6565b7fd1c19fbcd4551a5edfb66d43d2e337c04837afda3482b42bdf569a8fccdae5fb848684604051612e24939291906154e3565b60405180910390a15050505050565b60008261271061ffff16600a61ffff1687026fffffffffffffffffffffffffffffffff1681612e5e57fe5b0401905060008261271061ffff16600a61ffff1687026fffffffffffffffffffffffffffffffff1681612e8d57fe5b04019050600082600f0b1315612f3e57600660009054906101000a900473ffffffffffffffffffffffffffffffffffffffff1673ffffffffffffffffffffffffffffffffffffffff16639dc29fac33612eea600186600f0b613374565b6040518363ffffffff1660e01b8152600401612f079291906154ba565b600060405180830381600087803b158015612f2157600080fd5b505af1158015612f35573d6000803e3d6000fd5b50505050612fde565b600660009054906101000a900473ffffffffffffffffffffffffffffffffffffffff1673ffffffffffffffffffffffffffffffffffffffff166340c10f1933612f8e600186600003600f0b613374565b6040518363ffffffff1660e01b8152600401612fab9291906154ba565b600060405180830381600087803b158015612fc557600080fd5b505af1158015612fd9573d6000803e3d6000fd5b505050505b600081600f0b131561308b57600760009054906101000a900473ffffffffffffffffffffffffffffffffffffffff1673ffffffffffffffffffffffffffffffffffffffff16639dc29fac33613037600085600f0b613374565b6040518363ffffffff1660e01b81526004016130549291906154ba565b600060405180830381600087803b15801561306e57600080fd5b505af1158015613082573d6000803e3d6000fd5b5050505061312b565b600760009054906101000a900473ffffffffffffffffffffffffffffffffffffffff1673ffffffffffffffffffffffffffffffffffffffff166340c10f19336130db600085600003600f0b613374565b6040518363ffffffff1660e01b81526004016130f89291906154ba565b600060405180830381600087803b15801561311257600080fd5b505af1158015613126573d6000803e3d6000fd5b505050505b505050505050565b6000811561325757600b60010160009054906101000a90046fffffffffffffffffffffffffffffffff166fffffffffffffffffffffffffffffffff16600b60000160009054906101000a90046fffffffffffffffffffffffffffffffff166fffffffffffffffffffffffffffffffff16600460009054906101000a900473ffffffffffffffffffffffffffffffffffffffff1673ffffffffffffffffffffffffffffffffffffffff166370a08231306040518263ffffffff1660e01b81526004016131fe919061549f565b60206040518083038186803b15801561321657600080fd5b505afa15801561322a573d6000803e3d6000fd5b505050506040513d601f19601f8201168201806040525081019061324e9190614ec1565b0301905061336f565b600b60010160109054906101000a90046fffffffffffffffffffffffffffffffff166fffffffffffffffffffffffffffffffff16600b60000160109054906101000a90046fffffffffffffffffffffffffffffffff166fffffffffffffffffffffffffffffffff16600560009054906101000a900473ffffffffffffffffffffffffffffffffffffffff1673ffffffffffffffffffffffffffffffffffffffff166370a08231306040518263ffffffff1660e01b815260040161331a919061549f565b60206040518083038186803b15801561333257600080fd5b505afa158015613346573d6000803e3d6000fd5b505050506040513d601f19601f8201168201806040525081019061336a9190614ec1565b030190505b919050565b600080836133a457600760009054906101000a900473ffffffffffffffffffffffffffffffffffffffff166133c8565b600660009054906101000a900473ffffffffffffffffffffffffffffffffffffffff165b905060008173ffffffffffffffffffffffffffffffffffffffff166318160ddd6040518163ffffffff1660e01b815260040160206040518083038186803b15801561341257600080fd5b505afa158015613426573d6000803e3d6000fd5b505050506040513d601f19601f8201168201806040525081019061344a9190614ec1565b9050600061345786613133565b9050600081141561346d5784935050505061347f565b808286028161347857fe5b0493505050505b92915050565b6000808573ffffffffffffffffffffffffffffffffffffffff166323b872dd60e01b868686604051602401808473ffffffffffffffffffffffffffffffffffffffff1681526020018373ffffffffffffffffffffffffffffffffffffffff1681526020018281526020019350505050604051602081830303815290604052907bffffffffffffffffffffffffffffffffffffffffffffffffffffffff19166020820180517bffffffffffffffffffffffffffffffffffffffffffffffffffffffff83818316178352505050506040518082805190602001908083835b602083106135845780518252602082019150602081019050602083039250613561565b6001836020036101000a0380198251168184511680821785525050505050509050019150506000604051808303816000865af19150503d80600081146135e6576040519150601f19603f3d011682016040523d82523d6000602084013e6135eb565b606091505b509150915081801561362b575060008151148061362a575080806020019051602081101561361857600080fd5b81019080805190602001909291905050505b5b61369d576040517f08c379a00000000000000000000000000000000000000000000000000000000081526004018080602001828103825260038152602001807f535446000000000000000000000000000000000000000000000000000000000081525060200191505060405180910390fd5b505050505050565b6000808360ff1614156136c6578369ffffffffffffffffffff1690506137db565b60018360ff1614156136f35760106004830260500160ff1685901c816136e857fe5b0660ff1690506137db565b60028360ff1614156137205760026028830260600160ff1685901c8161371557fe5b0660ff1690506137db565b60038360ff1614156137505760026001602884026060010160ff1685901c8161374557fe5b0660ff1690506137db565b60048360ff1614156137805760046002602884026060010160ff1685901c8161377557fe5b0660ff1690506137db565b60058360ff1614156137a8576004602883026060010160ff1684901c62ffffff1690506137db565b60068360ff1614156137da57611000601c602884026060010160ff1685901c816137ce57fe5b0661ffff1690506137db565b5b9392505050565b60008073__$c3f55a3e7e4b410bf199cd5e3e47df218f$__6369f65163868587600760149054906101000a900460020b6040518563ffffffff1660e01b8152600401613831949392919061599f565b60606040518083038186803b15801561384957600080fd5b505af415801561385d573d6000803e3d6000fd5b505050506040513d601f19601f820116820180604052508101906138819190614dbc565b90506138a3613892866001866136a5565b850282600001518360200151613eb7565b91506000600360009054906101000a900473ffffffffffffffffffffffffffffffffffffffff1673ffffffffffffffffffffffffffffffffffffffff1663514ea4bf6138f83085600001518660200151613f09565b6040518263ffffffff1660e01b815260040161391491906155c8565b60a06040518083038186803b15801561392c57600080fd5b505afa158015613940573d6000803e3d6000fd5b505050506040513d601f19601f820116820180604052508101906139649190614e21565b50505050905060008073__$c3f55a3e7e4b410bf199cd5e3e47df218f$__630d5a9826600360009054906101000a900473ffffffffffffffffffffffffffffffffffffffff168660000151876020015188604001516040518563ffffffff1660e01b81526004016139d89493929190615680565b604080518083038186803b1580156139ef57600080fd5b505af4158015613a03573d6000803e3d6000fd5b505050506040513d601f19601f82011682018060405250810190613a279190614de5565b91509150600a60003373ffffffffffffffffffffffffffffffffffffffff1673ffffffffffffffffffffffffffffffffffffffff16815260200190815260200160002060008981526020019081526020016000206040518060600160405280846fffffffffffffffffffffffffffffffff168152602001836fffffffffffffffffffffffffffffffff168152602001856fffffffffffffffffffffffffffffffff16815250908060018154018082558091505060019003906000526020600020906002020160009091909190915060008201518160000160006101000a8154816fffffffffffffffffffffffffffffffff02191690836fffffffffffffffffffffffffffffffff16021790555060208201518160000160106101000a8154816fffffffffffffffffffffffffffffffff02191690836fffffffffffffffffffffffffffffffff16021790555060408201518160010160006101000a8154816fffffffffffffffffffffffffffffffff02191690836fffffffffffffffffffffffffffffffff1602179055505050505050509392505050565b60008082613bef57600760009054906101000a900473ffffffffffffffffffffffffffffffffffffffff16613c13565b600660009054906101000a900473ffffffffffffffffffffffffffffffffffffffff165b905060008173ffffffffffffffffffffffffffffffffffffffff166370a08231866040518263ffffffff1660e01b8152600401613c50919061549f565b60206040518083038186803b158015613c6857600080fd5b505afa158015613c7c573d6000803e3d6000fd5b505050506040513d601f19601f82011682018060405250810190613ca09190614ec1565b9050613cac84826125f1565b9250505092915050565b6000808473ffffffffffffffffffffffffffffffffffffffff1663a9059cbb60e01b8585604051602401808373ffffffffffffffffffffffffffffffffffffffff16815260200182815260200192505050604051602081830303815290604052907bffffffffffffffffffffffffffffffffffffffffffffffffffffffff19166020820180517bffffffffffffffffffffffffffffffffffffffffffffffffffffffff83818316178352505050506040518082805190602001908083835b60208310613d975780518252602082019150602081019050602083039250613d74565b6001836020036101000a0380198251168184511680821785525050505050509050019150506000604051808303816000865af19150503d8060008114613df9576040519150601f19603f3d011682016040523d82523d6000602084013e613dfe565b606091505b5091509150818015613e3e5750600081511480613e3d5750808060200190516020811015613e2b57600080fd5b81019080805190602001909291905050505b5b613eb0576040517f08c379a00000000000000000000000000000000000000000000000000000000081526004018080602001828103825260028152602001807f535400000000000000000000000000000000000000000000000000000000000081525060200191505060405180910390fd5b5050505050565b6000613f00613ec584613f70565b613ece84613f70565b613efb613eda87613f70565b613ee387613f70565b896fffffffffffffffffffffffffffffffff166143ab565b61442d565b90509392505050565b6000838383604051602001808473ffffffffffffffffffffffffffffffffffffffff1660601b81526014018360020b60e81b81526003018260020b60e81b815260030193505050506040516020818303038152906040528051906020012090509392505050565b60008060008360020b12613f87578260020b613f8f565b8260020b6000035b90507ffffffffffffffffffffffffffffffffffffffffffffffffffffffffffff2761860000360020b81111561402d576040517f08c379a00000000000000000000000000000000000000000000000000000000081526004018080602001828103825260018152602001807f540000000000000000000000000000000000000000000000000000000000000081525060200191505060405180910390fd5b60008060018316141561405157700100000000000000000000000000000000614063565b6ffffcb933bd6fad37aa2d162d1a5940015b70ffffffffffffffffffffffffffffffffff1690506000600283161461409d5760806ffff97272373d413259a46990580e213a8202901c90505b600060048316146140c25760806ffff2e50f5f656932ef12357cf3c7fdcc8202901c90505b600060088316146140e75760806fffe5caca7e10e4e61c3624eaa0941cd08202901c90505b6000601083161461410c5760806fffcb9843d60f6159c9db58835c9266448202901c90505b600060208316146141315760806fff973b41fa98c081472e6896dfb254c08202901c90505b600060408316146141565760806fff2ea16466c96a3843ec78b326b528618202901c90505b6000608083161461417b5760806ffe5dee046a99a2a811c461f1969c30538202901c90505b60006101008316146141a15760806ffcbe86c7900a88aedcffc83b479aa3a48202901c90505b60006102008316146141c75760806ff987a7253ac413176f2b074cf7815e548202901c90505b60006104008316146141ed5760806ff3392b0822b70005940c7a398e4b70f38202901c90505b60006108008316146142135760806fe7159475a2c29b7443b29c7fa6e889d98202901c90505b60006110008316146142395760806fd097f3bdfd2022b8845ad8f792aa58258202901c90505b600061200083161461425f5760806fa9f746462d870fdf8a65dc1f90e061e58202901c90505b60006140008316146142855760806f70d869a156d2a1b890bb3df62baf32f78202901c90505b60006180008316146142ab5760806f31be135f97d08fd981231505542fcfa68202901c90505b6000620100008316146142d25760806f09aa508b5b7a84e1c677de54f3e99bc98202901c90505b6000620200008316146142f85760806e5d6af8dedb81196699c329225ee6048202901c90505b60006204000083161461431d5760806d2216e584f5fa1ea926041bedfe988202901c90505b6000620800008316146143405760806b048a170391f7dc42444e8fa28202901c90505b60008460020b131561437957807fffffffffffffffffffffffffffffffffffffffffffffffffffffffffffffffff8161437557fe5b0490505b6000640100000000828161438957fe5b0614614396576001614399565b60005b60ff16602082901c0192505050919050565b60008273ffffffffffffffffffffffffffffffffffffffff168473ffffffffffffffffffffffffffffffffffffffff1611156143ec57828480945081955050505b61442461441f836c0100000000000000000000000087870373ffffffffffffffffffffffffffffffffffffffff166144e8565b6145c2565b90509392505050565b60008273ffffffffffffffffffffffffffffffffffffffff168473ffffffffffffffffffffffffffffffffffffffff16111561446e57828480945081955050505b8373ffffffffffffffffffffffffffffffffffffffff166144d7606060ff16846fffffffffffffffffffffffffffffffff16901b86860373ffffffffffffffffffffffffffffffffffffffff168673ffffffffffffffffffffffffffffffffffffffff166144e8565b816144de57fe5b0490509392505050565b600080600080198587098587029250828110838203039150506000811415614523576000841161451757600080fd5b838204925050506145bb565b80841161452f57600080fd5b600084868809905082811182039150808303925060008586600003169050808604955080840493506001818260000304019050808302841793506000600287600302189050808702600203810290508087026002038102905080870260020381029050808702600203810290508087026002038102905080870260020381029050808502955050505050505b9392505050565b600081829150816fffffffffffffffffffffffffffffffff16146145e557600080fd5b919050565b60006145fd6145f884615a15565b6159e4565b9050808382526020820190508285602086028201111561461c57600080fd5b60005b8581101561464c57816146328882614924565b84526020840193506020830192505060018101905061461f565b5050509392505050565b600061466961466484615a41565b6159e4565b90508281526020810184848401111561468157600080fd5b61468c848285615c68565b509392505050565b6000813590506146a381615cc7565b92915050565b6000815190506146b881615cc7565b92915050565b60008083601f8401126146d057600080fd5b8235905067ffffffffffffffff8111156146e957600080fd5b60208301915083602082028301111561470157600080fd5b9250929050565b600082601f83011261471957600080fd5b81356147298482602086016145ea565b91505092915050565b60008135905061474181615cde565b92915050565b60008151905061475681615cde565b92915050565b60008135905061476b81615cf5565b92915050565b600082601f83011261478257600080fd5b8135614792848260208601614656565b91505092915050565b6000815190506147aa81615d0c565b92915050565b6000815190506147bf81615d23565b92915050565b6000815190506147d481615d3a565b92915050565b6000604082840312156147ec57600080fd5b6147f660406159e4565b9050600061480684828501614924565b600083015250602061481a84828501614924565b60208301525092915050565b60006080828403121561483857600080fd5b61484260806159e4565b90506000614852848285016147c5565b6000830152506020614866848285016147c5565b602083015250604061487a84828501614939565b604083015250606061488e84828501614939565b60608301525092915050565b6000606082840312156148ac57600080fd5b6148b660606159e4565b905060006148c6848285016147b0565b60008301525060206148da848285016147b0565b60208301525060406148ee8482850161490f565b60408301525092915050565b60008135905061490981615d51565b92915050565b60008151905061491e81615d51565b92915050565b60008135905061493381615d68565b92915050565b60008151905061494881615d68565b92915050565b60006020828403121561496057600080fd5b600061496e84828501614694565b91505092915050565b60006020828403121561498957600080fd5b6000614997848285016146a9565b91505092915050565b600080604083850312156149b357600080fd5b60006149c185828601614694565b92505060206149d285828601614694565b9150509250929050565b600080600080600060a086880312156149f457600080fd5b6000614a0288828901614694565b9550506020614a1388828901614694565b945050604086013567ffffffffffffffff811115614a3057600080fd5b614a3c88828901614708565b935050606086013567ffffffffffffffff811115614a5957600080fd5b614a6588828901614708565b925050608086013567ffffffffffffffff811115614a8257600080fd5b614a8e88828901614771565b9150509295509295909350565b600080600080600060a08688031215614ab357600080fd5b6000614ac188828901614694565b9550506020614ad288828901614694565b9450506040614ae388828901614924565b9350506060614af488828901614924565b925050608086013567ffffffffffffffff811115614b1157600080fd5b614b1d88828901614771565b9150509295509295909350565b60008060008060808587031215614b4057600080fd5b6000614b4e87828801614694565b9450506020614b5f878288016147da565b935050606085013567ffffffffffffffff811115614b7c57600080fd5b614b88878288016146be565b925092505092959194509250565b60008060408385031215614ba957600080fd5b6000614bb785828601614694565b9250506020614bc885828601614924565b9150509250929050565b600080600060608486031215614be757600080fd5b6000614bf586828701614694565b9350506020614c0686828701614924565b9250506040614c1786828701614924565b9150509250925092565b600080600060408486031215614c3657600080fd5b600084013567ffffffffffffffff811115614c5057600080fd5b614c5c868287016146be565b93509350506020614c6f868287016148fa565b9150509250925092565b600060208284031215614c8b57600080fd5b6000614c9984828501614747565b91505092915050565b60008060408385031215614cb557600080fd5b6000614cc385828601614732565b9250506020614cd485828601614924565b9150509250929050565b600060208284031215614cf057600080fd5b6000614cfe8482850161475c565b91505092915050565b60008060008060808587031215614d1d57600080fd5b6000614d2b8782880161479b565b9450506020614d3c8782880161479b565b9350506040614d4d8782880161479b565b9250506060614d5e8782880161479b565b91505092959194509250565b600060208284031215614d7c57600080fd5b6000614d8a848285016147b0565b91505092915050565b600060808284031215614da557600080fd5b6000614db384828501614826565b91505092915050565b600060608284031215614dce57600080fd5b6000614ddc8482850161489a565b91505092915050565b60008060408385031215614df857600080fd5b6000614e068582860161490f565b9250506020614e178582860161490f565b9150509250929050565b600080600080600060a08688031215614e3957600080fd5b6000614e478882890161490f565b9550506020614e5888828901614939565b9450506040614e6988828901614939565b9350506060614e7a8882890161490f565b9250506080614e8b8882890161490f565b9150509295509295909350565b600060208284031215614eaa57600080fd5b6000614eb884828501614924565b91505092915050565b600060208284031215614ed357600080fd5b6000614ee184828501614939565b91505092915050565b60008060408385031215614efd57600080fd5b6000614f0b85828601614924565b9250506020614f1c85828601614694565b9150509250929050565b60008060008060608587031215614f3c57600080fd5b6000614f4a87828801614924565b9450506020614f5b87828801614694565b935050604085013567ffffffffffffffff811115614f7857600080fd5b614f84878288016146be565b925092505092959194509250565b6000614f9e83836153c9565b60608301905092915050565b614fb381615bc6565b82525050565b614fc281615aed565b82525050565b614fd181615aed565b82525050565b6000614fe282615a86565b614fec8185615a9e565b9350614ff783615a71565b8060005b83811015615027578161500e8882614f92565b975061501983615a91565b925050600181019050614ffb565b5085935050505092915050565b60006150408385615aaf565b93507f07ffffffffffffffffffffffffffffffffffffffffffffffffffffffffffffff83111561506f57600080fd5b602083029250615080838584615c68565b82840190509392505050565b61509581615aff565b82525050565b6150a481615b0b565b82525050565b6150b381615b15565b82525050565b6150c281615bd8565b82525050565b6150d181615bfc565b82525050565b6150e081615bfc565b82525050565b6150ef81615c20565b82525050565b6150fe81615b4e565b82525050565b61510d81615b4e565b82525050565b8082525050565b6000615127600e83615ac0565b91507f416c7265616479206d696e7465640000000000000000000000000000000000006000830152602082019050919050565b6000615167600283615ac0565b91507f31300000000000000000000000000000000000000000000000000000000000006000830152602082019050919050565b60006151a7601e83615ac0565b91507f6e6f7420656e6f756768206c697175696469747920617661696c61626c6500006000830152602082019050919050565b60006151e7600283615ac0565b91507f32300000000000000000000000000000000000000000000000000000000000006000830152602082019050919050565b6000615227600283615ac0565b91507f31310000000000000000000000000000000000000000000000000000000000006000830152602082019050919050565b6000615267600283615ac0565b91507f31390000000000000000000000000000000000000000000000000000000000006000830152602082019050919050565b60006152a7600e83615ac0565b91507f446f6573206e6f742065786973740000000000000000000000000000000000006000830152602082019050919050565b60006152e7600183615ac0565b91507f39000000000000000000000000000000000000000000000000000000000000006000830152602082019050919050565b6000615327601083615ac0565b91507f436f756e746572206d69736d61746368000000000000000000000000000000006000830152602082019050919050565b6000615367600183615ac0565b91507f38000000000000000000000000000000000000000000000000000000000000006000830152602082019050919050565b6040820160008201516153b06000850182615481565b5060208201516153c36020850182615481565b50505050565b6060820160008083015490506153de81615c77565b6153eb6000860182615445565b506153f581615c91565b6154026020860182615445565b506001830154905061541381615c77565b6154206040860182615445565b5050505050565b61543081615b65565b82525050565b61543f81615b65565b82525050565b61544e81615b65565b82525050565b61545d81615b81565b82525050565b61546c81615baf565b82525050565b61547b81615baf565b82525050565b61548a81615baf565b82525050565b61549981615bb9565b82525050565b60006020820190506154b46000830184614fb9565b92915050565b60006040820190506154cf6000830185614faa565b6154dc6020830184615463565b9392505050565b60006060820190506154f86000830186614fb9565b6155056020830185614fb9565b6155126040830184615463565b949350505050565b600060e08201905061552f600083018a614fc8565b61553c6020830189615113565b615549604083018861539a565b818103608083015261555c818688615034565b905061556b60a0830185615472565b61557860c0830184615472565b98975050505050505050565b60006040820190506155996000830185614fb9565b6155a66020830184615463565b9392505050565b60006020820190506155c2600083018461508c565b92915050565b60006020820190506155dd600083018461509b565b92915050565b60006020820190506155f860008301846150aa565b92915050565b600060208201905061561360008301846150b9565b92915050565b600060208201905061562e60008301846150c8565b92915050565b600060808201905061564960008301876150d7565b818103602083015261565b8186614fd7565b905061566a6040830185615472565b6156776060830184615436565b95945050505050565b600060808201905061569560008301876150d7565b6156a26020830186615104565b6156af6040830185615104565b6156bc6060830184615436565b95945050505050565b60006020820190506156da60008301846150e6565b92915050565b60006020820190506156f560008301846150f5565b92915050565b600060208201905081810360008301526157148161511a565b9050919050565b600060208201905081810360008301526157348161515a565b9050919050565b600060208201905081810360008301526157548161519a565b9050919050565b60006020820190508181036000830152615774816151da565b9050919050565b600060208201905081810360008301526157948161521a565b9050919050565b600060208201905081810360008301526157b48161525a565b9050919050565b600060208201905081810360008301526157d48161529a565b9050919050565b600060208201905081810360008301526157f4816152da565b9050919050565b600060208201905081810360008301526158148161531a565b9050919050565b600060208201905081810360008301526158348161535a565b9050919050565b60006020820190506158506000830184615427565b92915050565b600060608201905061586b6000830186615427565b6158786020830185615427565b6158856040830184615427565b949350505050565b60006080820190506158a26000830187615427565b6158af6020830186615427565b6158bc6040830185615427565b6158c96060830184615427565b95945050505050565b60006020820190506158e76000830184615454565b92915050565b60006020820190506159026000830184615463565b92915050565b600060408201905061591d6000830185615463565b61592a6020830184614fb9565b9392505050565b60006060820190506159466000830186615463565b6159536020830185615427565b6159606040830184614fb9565b949350505050565b600060608201905061597d6000830186615472565b61598a6020830185615436565b6159976040830184615104565b949350505050565b60006080820190506159b46000830187615472565b6159c16020830186615490565b6159ce6040830185615436565b6159db6060830184615104565b95945050505050565b6000604051905081810181811067ffffffffffffffff82111715615a0b57615a0a615cab565b5b8060405250919050565b600067ffffffffffffffff821115615a3057615a2f615cab565b5b602082029050602081019050919050565b600067ffffffffffffffff821115615a5c57615a5b615cab565b5b601f19601f8301169050602081019050919050565b60008190508160005260206000209050919050565b600081549050919050565b6000600282019050919050565b600082825260208201905092915050565b600082825260208201905092915050565b600082825260208201905092915050565b60006fffffffffffffffffffffffffffffffff82169050919050565b6000615af882615b8f565b9050919050565b60008115159050919050565b6000819050919050565b60007fffffffff0000000000000000000000000000000000000000000000000000000082169050919050565b600081600f0b9050919050565b60008160020b9050919050565b6000819050919050565b60006fffffffffffffffffffffffffffffffff82169050919050565b600061ffff82169050919050565b600073ffffffffffffffffffffffffffffffffffffffff82169050919050565b6000819050919050565b600060ff82169050919050565b6000615bd182615c44565b9050919050565b6000615be382615bea565b9050919050565b6000615bf582615b8f565b9050919050565b6000615c0782615c0e565b9050919050565b6000615c1982615b8f565b9050919050565b6000615c2b82615c32565b9050919050565b6000615c3d82615b8f565b9050919050565b6000615c4f82615c56565b9050919050565b6000615c6182615b8f565b9050919050565b82818337600083830152505050565b6000615c8a615c8583615cad565b615ad1565b9050919050565b6000615ca4615c9f83615cba565b615ad1565b9050919050565bfe5b60008160001c9050919050565b60008160801c9050919050565b615cd081615aed565b8114615cdb57600080fd5b50565b615ce781615aff565b8114615cf257600080fd5b50565b615cfe81615b15565b8114615d0957600080fd5b50565b615d1581615b41565b8114615d2057600080fd5b50565b615d2c81615b4e565b8114615d3757600080fd5b50565b615d4381615b5b565b8114615d4e57600080fd5b50565b615d5a81615b65565b8114615d6557600080fd5b50565b615d7181615baf565b8114615d7c57600080fd5b5056fe4f776e61626c653a206e6577206f776e657220697320746865207a65726f2061646472657373a2646970667358221220ea48e368ee7c71194347e1016d40c256a6110df58f6deb95f5f017936f6c1c3364736f6c6343000706003360806040523480156200001157600080fd5b506040518060400160405280600381526020017f50414e00000000000000000000000000000000000000000000000000000000008152506040518060400160405280600381526020017f50414e0000000000000000000000000000000000000000000000000000000000815250816003908051906020019062000096929190620000d4565b508060049080519060200190620000af929190620000d4565b506012600560006101000a81548160ff021916908360ff16021790555050506200018a565b828054600181600116156101000203166002900490600052602060002090601f0160209004810192826200010c576000855562000158565b82601f106200012757805160ff191683800117855562000158565b8280016001018555821562000158579182015b82811115620001575782518255916020019190600101906200013a565b5b5090506200016791906200016b565b5090565b5b80821115620001865760008160009055506001016200016c565b5090565b612bc0806200019a6000396000f3fe608060405234801561001057600080fd5b506004361061014d5760003560e01c8063313ce567116100c35780638da5cb5b1161007c5780638da5cb5b146103dc57806395d89b41146103fa5780639dc29fac14610418578063a457c2d714610434578063a9059cbb14610464578063dd62ed3e146104945761014d565b8063313ce567146102f4578063395093511461031257806340c10f19146103425780635cec7e221461035e57806370a082311461038e57806375dadb32146103be5761014d565b806316f0115b1161011557806316f0115b1461021e57806318160ddd1461023c578063183744fb1461025a57806323b872dd146102765780632495a599146102a65780632f01dc61146102c45761014d565b8063026e402b14610152578063046d33071461018257806305d98e12146101b257806306fdde03146101d0578063095ea7b3146101ee575b600080fd5b61016c60048036038101906101679190612310565b6104c4565b604051610179919061271e565b60405180910390f35b61019c6004803603810190610197919061222d565b6105f0565b6040516101a9919061285a565b60405180910390f35b6101ba610615565b6040516101c79190612798565b60405180910390f35b6101d861064e565b6040516101e59190612798565b60405180910390f35b61020860048036038101906102039190612310565b6106f0565b604051610215919061271e565b60405180910390f35b61022661070e565b6040516102339190612762565b60405180910390f35b610244610734565b604051610251919061285a565b60405180910390f35b610274600480360381019061026f91906121db565b61073e565b005b610290600480360381019061028b9190612269565b610b7b565b60405161029d919061271e565b60405180910390f35b6102ae610c54565b6040516102bb91906126c3565b60405180910390f35b6102de60048036038101906102d991906121db565b610c7a565b6040516102eb919061277d565b60405180910390f35b6102fc610c92565b6040516103099190612875565b60405180910390f35b61032c60048036038101906103279190612310565b610ca9565b604051610339919061271e565b60405180910390f35b61035c60048036038101906103579190612310565b610d5c565b005b610378600480360381019061037391906122b8565b610ddf565b604051610385919061271e565b60405180910390f35b6103a860048036038101906103a391906121db565b6112a4565b6040516103b5919061285a565b60405180910390f35b6103c66112ec565b6040516103d39190612798565b60405180910390f35b6103e4611325565b6040516103f191906126c3565b60405180910390f35b61040261134f565b60405161040f9190612798565b60405180910390f35b610432600480360381019061042d9190612310565b6113f1565b005b61044e60048036038101906104499190612310565b611474565b60405161045b919061271e565b60405180910390f35b61047e60048036038101906104799190612310565b611541565b60405161048b919061271e565b60405180910390f35b6104ae60048036038101906104a9919061222d565b61155f565b6040516104bb919061285a565b60405180910390f35b6000808211610508576040517f08c379a00000000000000000000000000000000000000000000000000000000081526004016104ff9061283a565b60405180910390fd5b81600960003373ffffffffffffffffffffffffffffffffffffffff1673ffffffffffffffffffffffffffffffffffffffff16815260200190815260200160002060008573ffffffffffffffffffffffffffffffffffffffff1673ffffffffffffffffffffffffffffffffffffffff1681526020019081526020016000206000828254019250508190555061059d3384846115e6565b81600a60008573ffffffffffffffffffffffffffffffffffffffff1673ffffffffffffffffffffffffffffffffffffffff1681526020019081526020016000206000828254019250508190555092915050565b6009602052816000526040600020602052806000526040600020600091509150505481565b6040518060400160405280600c81526020017f70616e6f707469632e78797a000000000000000000000000000000000000000081525081565b606060078054600181600116156101000203166002900480601f0160208091040260200160405190810160405280929190818152602001828054600181600116156101000203166002900480156106e65780601f106106bb576101008083540402835291602001916106e6565b820191906000526020600020905b8154815290600101906020018083116106c957829003601f168201915b5050505050905090565b60006107046106fd6118a7565b84846118af565b6001905092915050565b600b60009054906101000a900473ffffffffffffffffffffffffffffffffffffffff1681565b6000600254905090565b600073ffffffffffffffffffffffffffffffffffffffff16600560019054906101000a900473ffffffffffffffffffffffffffffffffffffffff1673ffffffffffffffffffffffffffffffffffffffff16146107cf576040517f08c379a00000000000000000000000000000000000000000000000000000000081526004016107c6906127da565b60405180910390fd5b600073ffffffffffffffffffffffffffffffffffffffff168173ffffffffffffffffffffffffffffffffffffffff16141561083f576040517f08c379a0000000000000000000000000000000000000000000000000000000008152600401610836906127fa565b60405180910390fd5b80600560016101000a81548173ffffffffffffffffffffffffffffffffffffffff021916908373ffffffffffffffffffffffffffffffffffffffff16021790555033600660006101000a81548173ffffffffffffffffffffffffffffffffffffffff021916908373ffffffffffffffffffffffffffffffffffffffff1602179055508073ffffffffffffffffffffffffffffffffffffffff1663313ce5676040518163ffffffff1660e01b815260040160206040518083038186803b15801561090757600080fd5b505afa15801561091b573d6000803e3d6000fd5b505050506040513d601f19601f8201168201806040525081019061093f91906123b6565b600660146101000a81548160ff021916908360ff16021790555033600b60006101000a81548173ffffffffffffffffffffffffffffffffffffffff021916908373ffffffffffffffffffffffffffffffffffffffff1602179055506040518060400160405280600481526020017f50414e2d000000000000000000000000000000000000000000000000000000008152508173ffffffffffffffffffffffffffffffffffffffff166306fdde036040518163ffffffff1660e01b815260040160006040518083038186803b158015610a1657600080fd5b505afa158015610a2a573d6000803e3d6000fd5b505050506040513d6000823e3d601f19601f82011682018060405250810190610a53919061234c565b604051602001610a6492919061269f565b60405160208183030381529060405260079080519060200190610a88929190611ffb565b506040518060400160405280600481526020017f50414e2d000000000000000000000000000000000000000000000000000000008152508173ffffffffffffffffffffffffffffffffffffffff166395d89b416040518163ffffffff1660e01b815260040160006040518083038186803b158015610b0557600080fd5b505afa158015610b19573d6000803e3d6000fd5b505050506040513d6000823e3d601f19601f82011682018060405250810190610b42919061234c565b604051602001610b5392919061269f565b60405160208183030381529060405260089080519060200190610b77929190611ffb565b5050565b6000610b888484846115e6565b610c4984610b946118a7565b610c4485604051806060016040528060288152602001612ad460289139600160008b73ffffffffffffffffffffffffffffffffffffffff1673ffffffffffffffffffffffffffffffffffffffff1681526020019081526020016000206000610bfa6118a7565b73ffffffffffffffffffffffffffffffffffffffff1673ffffffffffffffffffffffffffffffffffffffff16815260200190815260200160002054611aa69092919063ffffffff16565b6118af565b600190509392505050565b600560019054906101000a900473ffffffffffffffffffffffffffffffffffffffff1681565b600a6020528060005260406000206000915090505481565b6000600660149054906101000a900460ff16905090565b6000610d52610cb66118a7565b84610d4d8560016000610cc76118a7565b73ffffffffffffffffffffffffffffffffffffffff1673ffffffffffffffffffffffffffffffffffffffff16815260200190815260200160002060008973ffffffffffffffffffffffffffffffffffffffff1673ffffffffffffffffffffffffffffffffffffffff16815260200190815260200160002054611b6090919063ffffffff16565b6118af565b6001905092915050565b3373ffffffffffffffffffffffffffffffffffffffff16610d7b611325565b73ffffffffffffffffffffffffffffffffffffffff1614610dd1576040517f08c379a0000000000000000000000000000000000000000000000000000000008152600401610dc89061281a565b60405180910390fd5b610ddb8282611be8565b5050565b6000610de9612089565b6000600960003373ffffffffffffffffffffffffffffffffffffffff1673ffffffffffffffffffffffffffffffffffffffff16815260200190815260200160002060008773ffffffffffffffffffffffffffffffffffffffff1673ffffffffffffffffffffffffffffffffffffffff16815260200190815260200160002054905060008111610ead576040517f08c379a0000000000000000000000000000000000000000000000000000000008152600401610ea4906127ba565b60405180910390fd5b600560019054906101000a900473ffffffffffffffffffffffffffffffffffffffff1673ffffffffffffffffffffffffffffffffffffffff16600b60009054906101000a900473ffffffffffffffffffffffffffffffffffffffff1673ffffffffffffffffffffffffffffffffffffffff16630dfe16816040518163ffffffff1660e01b815260040160206040518083038186803b158015610f4e57600080fd5b505afa158015610f62573d6000803e3d6000fd5b505050506040513d601f19601f82011682018060405250810190610f869190612204565b73ffffffffffffffffffffffffffffffffffffffff16141561106957600b60009054906101000a900473ffffffffffffffffffffffffffffffffffffffff1673ffffffffffffffffffffffffffffffffffffffff1663d1c6e1e16001836040518363ffffffff1660e01b8152600401611000929190612739565b60206040518083038186803b15801561101857600080fd5b505afa15801561102c573d6000803e3d6000fd5b505050506040513d601f19601f82011682018060405250810190611050919061238d565b826000018181525050600082602001818152505061112c565b6000826000018181525050600b60009054906101000a900473ffffffffffffffffffffffffffffffffffffffff1673ffffffffffffffffffffffffffffffffffffffff1663d1c6e1e16000836040518363ffffffff1660e01b81526004016110d2929190612739565b60206040518083038186803b1580156110ea57600080fd5b505afa1580156110fe573d6000803e3d6000fd5b505050506040513d601f19601f82011682018060405250810190611122919061238d565b8260200181815250505b600b60009054906101000a900473ffffffffffffffffffffffffffffffffffffffff1673ffffffffffffffffffffffffffffffffffffffff16631807f18f878488886040518563ffffffff1660e01b815260040161118d94939291906126de565b60006040518083038186803b1580156111a557600080fd5b505afa1580156111b9573d6000803e3d6000fd5b505050506000600960003373ffffffffffffffffffffffffffffffffffffffff1673ffffffffffffffffffffffffffffffffffffffff16815260200190815260200160002060008873ffffffffffffffffffffffffffffffffffffffff1673ffffffffffffffffffffffffffffffffffffffff1681526020019081526020016000208190555061124a8633836115e6565b80600a60008873ffffffffffffffffffffffffffffffffffffffff1673ffffffffffffffffffffffffffffffffffffffff168152602001908152602001600020600082825403925050819055506001925050509392505050565b60008060008373ffffffffffffffffffffffffffffffffffffffff1673ffffffffffffffffffffffffffffffffffffffff168152602001908152602001600020549050919050565b6040518060400160405280600481526020017f50414e2d0000000000000000000000000000000000000000000000000000000081525081565b6000600660009054906101000a900473ffffffffffffffffffffffffffffffffffffffff16905090565b606060088054600181600116156101000203166002900480601f0160208091040260200160405190810160405280929190818152602001828054600181600116156101000203166002900480156113e75780601f106113bc576101008083540402835291602001916113e7565b820191906000526020600020905b8154815290600101906020018083116113ca57829003601f168201915b5050505050905090565b3373ffffffffffffffffffffffffffffffffffffffff16611410611325565b73ffffffffffffffffffffffffffffffffffffffff1614611466576040517f08c379a000000000000000000000000000000000000000000000000000000000815260040161145d9061281a565b60405180910390fd5b6114708282611daf565b5050565b60006115376114816118a7565b8461153285604051806060016040528060258152602001612b6660259139600160006114ab6118a7565b73ffffffffffffffffffffffffffffffffffffffff1673ffffffffffffffffffffffffffffffffffffffff16815260200190815260200160002060008a73ffffffffffffffffffffffffffffffffffffffff1673ffffffffffffffffffffffffffffffffffffffff16815260200190815260200160002054611aa69092919063ffffffff16565b6118af565b6001905092915050565b600061155561154e6118a7565b84846115e6565b6001905092915050565b6000600160008473ffffffffffffffffffffffffffffffffffffffff1673ffffffffffffffffffffffffffffffffffffffff16815260200190815260200160002060008373ffffffffffffffffffffffffffffffffffffffff1673ffffffffffffffffffffffffffffffffffffffff16815260200190815260200160002054905092915050565b600073ffffffffffffffffffffffffffffffffffffffff168373ffffffffffffffffffffffffffffffffffffffff16141561166c576040517f08c379a0000000000000000000000000000000000000000000000000000000008152600401808060200182810382526025815260200180612b1d6025913960400191505060405180910390fd5b600073ffffffffffffffffffffffffffffffffffffffff168273ffffffffffffffffffffffffffffffffffffffff1614156116f2576040517f08c379a0000000000000000000000000000000000000000000000000000000008152600401808060200182810382526023815260200180612a476023913960400191505060405180910390fd5b6116fd838383611f73565b61176881604051806060016040528060268152602001612aae602691396000808773ffffffffffffffffffffffffffffffffffffffff1673ffffffffffffffffffffffffffffffffffffffff16815260200190815260200160002054611aa69092919063ffffffff16565b6000808573ffffffffffffffffffffffffffffffffffffffff1673ffffffffffffffffffffffffffffffffffffffff168152602001908152602001600020819055506117fb816000808573ffffffffffffffffffffffffffffffffffffffff1673ffffffffffffffffffffffffffffffffffffffff16815260200190815260200160002054611b6090919063ffffffff16565b6000808473ffffffffffffffffffffffffffffffffffffffff1673ffffffffffffffffffffffffffffffffffffffff168152602001908152602001600020819055508173ffffffffffffffffffffffffffffffffffffffff168373ffffffffffffffffffffffffffffffffffffffff167fddf252ad1be2c89b69c2b068fc378daa952ba7f163c4a11628f55a4df523b3ef836040518082815260200191505060405180910390a3505050565b600033905090565b600073ffffffffffffffffffffffffffffffffffffffff168373ffffffffffffffffffffffffffffffffffffffff161415611935576040517f08c379a0000000000000000000000000000000000000000000000000000000008152600401808060200182810382526024815260200180612b426024913960400191505060405180910390fd5b600073ffffffffffffffffffffffffffffffffffffffff168273ffffffffffffffffffffffffffffffffffffffff1614156119bb576040517f08c379a0000000000000000000000000000000000000000000000000000000008152600401808060200182810382526022815260200180612a8c6022913960400191505060405180910390fd5b80600160008573ffffffffffffffffffffffffffffffffffffffff1673ffffffffffffffffffffffffffffffffffffffff16815260200190815260200160002060008473ffffffffffffffffffffffffffffffffffffffff1673ffffffffffffffffffffffffffffffffffffffff168152602001908152602001600020819055508173ffffffffffffffffffffffffffffffffffffffff168373ffffffffffffffffffffffffffffffffffffffff167f8c5be1e5ebec7d5bd14f71427d1e84f3dd0314c0f7b2291e5b200ac8c7c3b925836040518082815260200191505060405180910390a3505050565b6000838311158290611b53576040517f08c379a00000000000000000000000000000000000000000000000000000000081526004018080602001828103825283818151815260200191508051906020019080838360005b83811015611b18578082015181840152602081019050611afd565b50505050905090810190601f168015611b455780820380516001836020036101000a031916815260200191505b509250505060405180910390fd5b5082840390509392505050565b600080828401905083811015611bde576040517f08c379a000000000000000000000000000000000000000000000000000000000815260040180806020018281038252601b8152602001807f536166654d6174683a206164646974696f6e206f766572666c6f77000000000081525060200191505060405180910390fd5b8091505092915050565b600073ffffffffffffffffffffffffffffffffffffffff168273ffffffffffffffffffffffffffffffffffffffff161415611c8b576040517f08c379a000000000000000000000000000000000000000000000000000000000815260040180806020018281038252601f8152602001807f45524332303a206d696e7420746f20746865207a65726f20616464726573730081525060200191505060405180910390fd5b611c9760008383611f73565b611cac81600254611b6090919063ffffffff16565b600281905550611d03816000808573ffffffffffffffffffffffffffffffffffffffff1673ffffffffffffffffffffffffffffffffffffffff16815260200190815260200160002054611b6090919063ffffffff16565b6000808473ffffffffffffffffffffffffffffffffffffffff1673ffffffffffffffffffffffffffffffffffffffff168152602001908152602001600020819055508173ffffffffffffffffffffffffffffffffffffffff16600073ffffffffffffffffffffffffffffffffffffffff167fddf252ad1be2c89b69c2b068fc378daa952ba7f163c4a11628f55a4df523b3ef836040518082815260200191505060405180910390a35050565b600073ffffffffffffffffffffffffffffffffffffffff168273ffffffffffffffffffffffffffffffffffffffff161415611e35576040517f08c379a0000000000000000000000000000000000000000000000000000000008152600401808060200182810382526021815260200180612afc6021913960400191505060405180910390fd5b611e4182600083611f73565b611eac81604051806060016040528060228152602001612a6a602291396000808673ffffffffffffffffffffffffffffffffffffffff1673ffffffffffffffffffffffffffffffffffffffff16815260200190815260200160002054611aa69092919063ffffffff16565b6000808473ffffffffffffffffffffffffffffffffffffffff1673ffffffffffffffffffffffffffffffffffffffff16815260200190815260200160002081905550611f0381600254611f7890919063ffffffff16565b600281905550600073ffffffffffffffffffffffffffffffffffffffff168273ffffffffffffffffffffffffffffffffffffffff167fddf252ad1be2c89b69c2b068fc378daa952ba7f163c4a11628f55a4df523b3ef836040518082815260200191505060405180910390a35050565b505050565b600082821115611ff0576040517f08c379a000000000000000000000000000000000000000000000000000000000815260040180806020018281038252601e8152602001807f536166654d6174683a207375627472616374696f6e206f766572666c6f77000081525060200191505060405180910390fd5b818303905092915050565b828054600181600116156101000203166002900490600052602060002090601f0160209004810192826120315760008555612078565b82601f1061204a57805160ff1916838001178555612078565b82800160010185558215612078579182015b8281111561207757825182559160200191906001019061205c565b5b50905061208591906120a3565b5090565b604051806040016040528060008152602001600081525090565b5b808211156120bc5760008160009055506001016120a4565b5090565b60006120d36120ce846128c1565b612890565b9050828152602081018484840111156120eb57600080fd5b6120f68482856129bb565b509392505050565b60008135905061210d81612a01565b92915050565b60008151905061212281612a01565b92915050565b60008083601f84011261213a57600080fd5b8235905067ffffffffffffffff81111561215357600080fd5b60208301915083602082028301111561216b57600080fd5b9250929050565b600082601f83011261218357600080fd5b81516121938482602086016120c0565b91505092915050565b6000813590506121ab81612a18565b92915050565b6000815190506121c081612a18565b92915050565b6000815190506121d581612a2f565b92915050565b6000602082840312156121ed57600080fd5b60006121fb848285016120fe565b91505092915050565b60006020828403121561221657600080fd5b600061222484828501612113565b91505092915050565b6000806040838503121561224057600080fd5b600061224e858286016120fe565b925050602061225f858286016120fe565b9150509250929050565b60008060006060848603121561227e57600080fd5b600061228c868287016120fe565b935050602061229d868287016120fe565b92505060406122ae8682870161219c565b9150509250925092565b6000806000604084860312156122cd57600080fd5b60006122db868287016120fe565b935050602084013567ffffffffffffffff8111156122f857600080fd5b61230486828701612128565b92509250509250925092565b6000806040838503121561232357600080fd5b6000612331858286016120fe565b92505060206123428582860161219c565b9150509250929050565b60006020828403121561235e57600080fd5b600082015167ffffffffffffffff81111561237857600080fd5b61238484828501612172565b91505092915050565b60006020828403121561239f57600080fd5b60006123ad848285016121b1565b91505092915050565b6000602082840312156123c857600080fd5b60006123d6848285016121c6565b91505092915050565b6123e881612929565b82525050565b60006123fa83856128fc565b93507f07ffffffffffffffffffffffffffffffffffffffffffffffffffffffffffffff83111561242957600080fd5b60208302925061243a8385846129ac565b82840190509392505050565b61244f8161293b565b82525050565b61245e81612988565b82525050565b61246d81612947565b82525050565b600061247e826128f1565b612488818561290d565b93506124988185602086016129bb565b6124a1816129f0565b840191505092915050565b60006124b7826128f1565b6124c1818561291e565b93506124d18185602086016129bb565b80840191505092915050565b60006124ea60118361290d565b91507f6e6f2064656c6567617465642066756e640000000000000000000000000000006000830152602082019050919050565b600061252a60188361290d565b91507f546f6b656e20616c726561647920636f6e6669677572656400000000000000006000830152602082019050919050565b600061256a60178361290d565b91507f546f6b656e2061646472657373206e6f742076616c69640000000000000000006000830152602082019050919050565b60006125aa60208361290d565b91507f4f776e61626c653a2063616c6c6572206973206e6f7420746865206f776e65726000830152602082019050919050565b60006125ea60288361290d565b91507f64656c656761746520616d6f756e742073686f756c642062652067726561746560008301527f72207468616e20300000000000000000000000000000000000000000000000006020830152604082019050919050565b6040820160008201516126596000850182612672565b50602082015161266c6020850182612672565b50505050565b61267b81612971565b82525050565b61268a81612971565b82525050565b6126998161297b565b82525050565b60006126ab82856124ac565b91506126b782846124ac565b91508190509392505050565b60006020820190506126d860008301846123df565b92915050565b60006080820190506126f360008301876123df565b6127006020830186612643565b81810360608301526127138184866123ee565b905095945050505050565b60006020820190506127336000830184612446565b92915050565b600060408201905061274e6000830185612446565b61275b6020830184612681565b9392505050565b60006020820190506127776000830184612455565b92915050565b60006020820190506127926000830184612464565b92915050565b600060208201905081810360008301526127b28184612473565b905092915050565b600060208201905081810360008301526127d3816124dd565b9050919050565b600060208201905081810360008301526127f38161251d565b9050919050565b600060208201905081810360008301526128138161255d565b9050919050565b600060208201905081810360008301526128338161259d565b9050919050565b60006020820190508181036000830152612853816125dd565b9050919050565b600060208201905061286f6000830184612681565b92915050565b600060208201905061288a6000830184612690565b92915050565b6000604051905081810181811067ffffffffffffffff821117156128b7576128b66129ee565b5b8060405250919050565b600067ffffffffffffffff8211156128dc576128db6129ee565b5b601f19601f8301169050602081019050919050565b600081519050919050565b600082825260208201905092915050565b600082825260208201905092915050565b600081905092915050565b600061293482612951565b9050919050565b60008115159050919050565b6000819050919050565b600073ffffffffffffffffffffffffffffffffffffffff82169050919050565b6000819050919050565b600060ff82169050919050565b60006129938261299a565b9050919050565b60006129a582612951565b9050919050565b82818337600083830152505050565b60005b838110156129d95780820151818401526020810190506129be565b838111156129e8576000848401525b50505050565bfe5b6000601f19601f8301169050919050565b612a0a81612929565b8114612a1557600080fd5b50565b612a2181612971565b8114612a2c57600080fd5b50565b612a388161297b565b8114612a4357600080fd5b5056fe45524332303a207472616e7366657220746f20746865207a65726f206164647265737345524332303a206275726e20616d6f756e7420657863656564732062616c616e636545524332303a20617070726f766520746f20746865207a65726f206164647265737345524332303a207472616e7366657220616d6f756e7420657863656564732062616c616e636545524332303a207472616e7366657220616d6f756e74206578636565647320616c6c6f77616e636545524332303a206275726e2066726f6d20746865207a65726f206164647265737345524332303a207472616e736665722066726f6d20746865207a65726f206164647265737345524332303a20617070726f76652066726f6d20746865207a65726f206164647265737345524332303a2064656372656173656420616c6c6f77616e63652062656c6f77207a65726fa26469706673582212203ae5e921bda4fecc13ce9de9597d9ce437cd20229046a9d87fefd5dacc64f82664736f6c63430007060033",
  "linkReferences": {
    "contracts/libraries/PanopticHealth.sol": {
      "PanopticHealth": [
        {
          "length": 20,
          "start": 5277
        }
      ]
    },
    "contracts/libraries/PanopticMath.sol": {
      "PanopticMath": [
        {
          "length": 20,
          "start": 12171
        },
        {
          "length": 20,
          "start": 12357
        },
        {
          "length": 20,
          "start": 18126
        },
        {
          "length": 20,
          "start": 18518
        }
      ]
    }
  },
  "deployedLinkReferences": {}
}